:100000000C94D6000C94F3000C94340D0C94F30073
:100010000C94F3000C94250D0C94F3000C94F30055
:100020000C94F3000C94F3000C94F3000C94F30084
:100030000C94F3000C94F3000C94E70C0C94F30074
:100040000C94F3000C94F3000C94F3000C94F30064
:100050000C94F3000C94F3000C94F3000C94F30054
:100060000C94F3000C94F3000C94F3000C94F30044
:10007000323032313035303600010504141011159C
:100080000000000000000000000000000000000070
:100090000000000000000000000000000000000060
:1000A0000000000000000000000000000000000050
:1000B0000000000000000000000000000000000040
:1000C0000000010304050708090B0C0E0F1113149F
:1000D0001618191B1D1F21232527292B2D303234DB
:1000E00037393B3E404346484B4E5154575A5D606A
:1000F0006366696D7073777A7E8185898D90949837
:100100009CA0A5A9ADB1B6BABFC3C8CDD1D6DBE01E
:10011000E5EAEFF4FAFF0101020203030404050615
:100120000708090A0C0D0E0F11131416181A1D1FBB
:100130002224272A2D3033373B3E42464B4F545919
:100140005D63686E73797F868C939AA1A8B0B8C0FE
:10015000C8D1D9E2ECF5FFFFFFFFFFFFFFFFFFFF74
:10016000FFFFFFFFFFFFFFFFFFFFFFFFFFFFFFFF9F
:10017000FFFFFFFFFFFFFFFFFFFFFFFFFFFFFFFF8F
:10018000FFFFFFFFFFFFFFFFFFFFFFFFFFFFFFFF7F
:10019000FFFFFFFFFFFFFFFFFFFFFFFFFFFFFFFF6F
:1001A000FFFFFFFFFFFFFFFFFFFFFF0011241FBE48
:1001B000CFEFD4E0DEBFCDBF11E0A0E0B1E0ECE7CF
:1001C000FFE102C005900D92AE33B107D9F721E0EF
:1001D000AEE3B1E001C01D92A83DB207E1F70E9475
:1001E000430D0C94BC0F0C940000F89498ED9FBD47
:1001F00083BF78940895482FDB0120E030E0C901E7
:1002000063E070E00E945D0FFC01EB55FE4F8081C2
:10021000882331F02F5F3F4F2031310581F703C034
:100220004083B283A18308950F931F93CF93C82F68
:1002300008EA17E0CC2359F082E00E94F500C801DB
:100240000197F1F780E00E94F500C150F3CFCF9104
:100250001F910F9108950F931F93CF93DF93809178
:10026000A501882309F441C00091A6011091A701BE
:10027000D091A501C0918201C150C7FD0DC0EC2FE6
:10028000EE0FFF0BED57FE4F0190F081E02DB8010E
:100290008D2F09958111F0CF20E030E0F22FE32F70
:1002A0002F5F3F4FC90163E070E00E945D0FDC01EA
:1002B000AB55BE4F4C918F2F9E2F63E070E00E9494
:1002C0005D0FFC01EB55FE4F408311968D919C9183
:1002D0001297928381832F30310501F71092D2015A
:1002E0001092D4011092D301BACFDF91CF911F9118
:1002F0000F9108959093D6018093D501BC01809110
:10030000D7010C94FB008FB182FB882780F991E024
:10031000892780937F010895E0910601F0910701FC
:100320003196FB70F460F0930701E0930601809131
:100330007B018B5A80937B01E49180917B018E0F2E
:1003400008950F931F93CF93DF9300D01F92CDB7E3
:10035000DEB72091170130911801409119012983CE
:100360003A834B83FE01319640E050E090E061E03B
:1003700070E0B1919A01220F331F8C0102C01595D4
:1003800007952A95E2F79801237061F02130D1F4A6
:10039000A0B39B0101C0220FBA95EAF7322F309526
:1003A0003A2318C0A0B39B0101C0220FBA95EAF707
:1003B00020953A2F322330BB32B3322332BB31B3D4
:1003C00023230EC0A0B39B0101C0220FBA95EAF708
:1003D0003A2F322B30BB32B3322B32BB31B3232B0B
:1003E00021BB4F5F5F4F4330510519F60F900F90BF
:1003F0000F90DF91CF911F910F910895CF93C82F48
:1004000080937D0180937C0180917E01811102C0E7
:100410000E94A101C11109C010926D0010926C00E0
:1004200010926B0010926A0015C0C1508C2F90E0A2
:10043000FC01EA5EFE4FE491F0E0F0936D00E09382
:100440006C00FC01E058FF4FE491F0E0F0936B008A
:10045000E0936A0080917D01863010F482E005C04F
:100460008E3010F481E001C080E0CF910C94F50053
:1004700081E0089580916801882369F020919601B8
:100480003091970190919501291B821B80939501D2
:1004900082E08093160180916901882319F0835EC0
:1004A0008093150180911501873418F086E48093BC
:1004B00015010895809168018111809308010895C4
:1004C000809363010C94FE01CF93C82FCC2371F06D
:1004D00085E20E94FE0182E00E94140180E00E94F9
:1004E000FE0189E10E941401C150F0CFCF9108951F
:1004F000CF93C0917D0180E00E94FE0183E00E94C5
:1005000014018C2FCF910C94FE01CF93DF93CDB7C4
:10051000DEB763970FB6F894DEBF0FBECDBFE82FEE
:100520008091980181508C3110F480E073C02E2F9F
:1005300022952F70EF7080917E01811103C02330CE
:1005400008F022E0E730A0F180917E01E73079F4F5
:10055000637051F480913F0190E0019666E070E095
:100560000E948E0F80933F01E0913F0121C08823BC
:1005700009F180E1EAE1F1E0DE01119601900D92CE
:100580008A95E1F74091980130E04D31F8F0832FE2
:1005900090E0E1E0F0E0EC0FFD1FE80FF91F508163
:1005A000451710F03E5FF3CFFE01E80FF91FE08121
:1005B000F0E009C0862F869563E00E946E0FE92F58
:1005C000F0E0EE0FFF1FE758FF4F34912330D1F4D6
:1005D00083E1EAE2F1E0DE01119601900D928A9545
:1005E000E1F780913E0190E0019663E170E00E94A6
:1005F0007A0F80933E01E1E0F0E0EC0FFD1FE80F81
:10060000F91F2081222321F0213019F0330F01C07E
:1006100030E0832F63960FB6F894DEBF0FBECDBFD8
:10062000DF91CF910C94A1010F931F93CF93DF9390
:100630008091650180936C018091100180936D0120
:1006400080910F0180936E0180910E0180936F0164
:1006500080910D018093700180910C018093710154
:10066000809166018093720180910B0180937301E8
:10067000809109018093740180910A018093750132
:100680008091080180937601809115018093770114
:100690008091950180937801809114018093790174
:1006A0008091130180937A01F8940CE611E0C1E87F
:1006B000D0E0F80161918F01CE010E94AA0F21962E
:1006C000C039D105B1F765EA80E890E00E94AA0F31
:1006D0007894DF91CF911F910F910895209165013A
:1006E0009091680180916901222381F0911190938A
:1006F0000E01882321F097E9981B90930D018091BA
:100700006A01882361F080930C0108959111909300
:100710001001882321F097E9981B90930F01089509
:100720000F931F93CF93DF93EC01609110018091A1
:100730000F0190916501992321F060910E01809144
:100740000D01262F30E0C217D3070CF444C0282F28
:1007500030E02C173D070CF43FC0809165018111FA
:1007600002C08C2F39C0E0910D0180910E01E81B71
:1007700060910C01F0E070E061507109CF010E94BE
:100780008E0F6093640180910E016695262F30E0F4
:1007900010E090910C011917F8F440910C010091B0
:1007A0000E01812F90E0BF010E945D0F642F70E069
:1007B000615071090E947A0F802F860FAE01481B8D
:1007C000510957FF03C05195419551092417350729
:1007D0001CF41F5FDECF862FDF91CF911F910F9109
:1007E0000895FF920F931F93CF93DF938C01EB013A
:1007F000F42E8091930190919401892B31F0E09136
:100800009301F091940189E009951093940100936C
:100810009301012B61F0E0919301F0919401BE01ED
:100820008F2DDF91CF911F910F91FF900994DF9150
:10083000CF911F910F91FF900895CF93DF93E09197
:100840008201EE2359F0E150E0938201F0E0EE0FD7
:10085000FF1FED57FE4FC081D18102C0C0E0D0E044
:10086000E0918201EE2341F0F0E0EE0FFF1FEF5721
:10087000FE4F8081918102C080E090E04AE060E01C
:1008800070E00E94F103CE01DF91CF9108959C01A9
:1008900090918201983090F4E92FF0E0EE0FFF1F65
:1008A000ED57FE4F318320839F5F9093820148E094
:1008B000C9010E94F1038091820108958FEF08958C
:1008C0000F931F93CF93DF93EC018B010E941D04C4
:1008D000B801CE01DF91CF911F910F910C94470485
:1008E000883059F4109247011092460182E00E942C
:1008F000640288E10E94FE0108C0813C41F460E08E
:1009000070E082E595E00E94600480E00895823CFA
:1009100029F460E070E086E395E0F5CF8130E1F402
:1009200080914601909147010196853524E2920716
:1009300028F49093470180934601E7CF1092470136
:100940001092460180917D0181500E94FE018091AC
:100950007D018111DACFD3CF81E00895843041F554
:1009600080919301909194012BE08A36920729F4AB
:1009700069E170E08BEF95E018C08B5F954089F4DA
:1009800080917D01823068F020917D0190917D0100
:100990002695892F86958695820F0E94600280E0B9
:1009A000089560E070E082E595E00E946004F7CF72
:1009B00081E00895883051F48091130180931201F1
:1009C0008091120160E00E94850232C0813031F4D2
:1009D0006931710558F180937E0102C0833019F4AA
:1009E000809112010FC0813C81F4809112018F70BF
:1009F0008F5F66E00E946E0F90629093120180916B
:100A0000120160E00E94850211C0833C39F480919C
:100A10001201809313010E9414030AC0823C41F426
:100A200060E070E082E595E00E94600480E0089557
:100A300081E00895813C29F460E070E082E595E072
:100A400006C0823C39F460E070E084E799E00E94DF
:100A5000600408C0843C41F460E070E082E398E008
:100A60000E94470480E0089581E00895813C29F4C4
:100A700060E070E082E595E006C0823C39F460E019
:100A800070E08AE195E00E94600408C0843C41F473
:100A900060E070E087E398E00E94470480E00895FA
:100AA00081E00895CF93DF93EB01883079F480E003
:100AB0000E94FE0160E0809114010E948502CD2B0E
:100AC00019F481E080937E0180E092C0813031F49E
:100AD00069317105C8F380937E016CC0833009F4DD
:100AE00069C0813B79F481E090E00E9490030E940C
:100AF000FE0180916501811102C0689728F361E0D1
:100B000070E015C0813ED9F3813C19F461E470E0D6
:100B10000EC0823C41F480E00E94FE0160E070E083
:100B20008AED94E061C0823B29F466E970E08BEFC6
:100B300095E05AC0833921F480E00E94FE01C4CFC1
:100B4000833C29F460E070E084E799E04DC0833B8A
:100B500029F460E070E08AE69BE046C0843CB1F492
:100B600090911401892F82958F708F5F8370829589
:100B7000807F9F70892B8093140160E00E94850222
:100B80000E94140381E00E9464029ECF843BC1F462
:100B9000CB018F739927892B69F490911401892FC8
:100BA0008F708F5F292F207F6AE00E946E0F922B3B
:100BB000909314016C2F809114010E94850284CFC0
:100BC000843E19F40E9414037FCF8A3C39F460E01C
:100BD00070E082E398E00E94470476CF8F3C39F4BE
:100BE00060E070E088E392E00E9460046DCF81E0F5
:100BF000DF91CF910895CF93DF939B014091100136
:100C0000C0910F0190916501992339F040910E0137
:100C1000C0910D01D091640101C0D1E0883029F06C
:100C20008A30A9F42091110130E0842F90E08217DE
:100C3000930730F4D0E02C173D0710F420931101F6
:100C4000C9010E9490030E94600281E08CC0813C37
:100C500039F460E070E082E595E00E946004C7C16D
:100C6000823C49F480917D01863910F486E9A2C066
:100C7000809111019FC0833C99F49091650181E0BE
:100C8000911180E0809365010E9414030E94780214
:100C900080917D0190E00E949003809311018AC0B1
:100CA000843C39F460E070E08BE298E00E944704F5
:100CB0009EC1813B09F052C080916501882341F0BB
:100CC000C90168E170E00E947A0F892B09F08FC199
:100CD0002115310571F480917D018C1710F08FEF93
:100CE00005C080917D014817D8F081E0809305010F
:100CF00017C0273381E0380798F080917D018C1769
:100D000070F72D36324060F080917D01481740F039
:100D10000E94780260E070E08AED94E00E94600436
:100D200020917D01809105016D2F70E0082E000C4F
:100D3000990B0E945D0F820F911D0E949003D82F86
:100D40008093110180917D01D81731F0D13411F0D9
:100D5000CD1302C00E9478028D2F2CC0813E31F449
:100D60008091050181958093050141C1823B29F560
:100D700081E08093050180916501882341F0C901DC
:100D800068E170E00E947A0F892B09F030C18091F0
:100D90007D0190E08D1B91090E949003C82F8093E4
:100DA000110180917D01C81721F0C13411F40E9416
:100DB00078028C2F0E9460021AC1853C29F4809130
:100DC0007D018093660107C0853B51F4232B09F018
:100DD00010C1109266010E9414030E94780209C19A
:100DE000813009F0BBC02E33310511F48093050129
:100DF00080917C0120917D0190E0821B91094091BE
:100E00004D0150914E014F5F5F4F50934E01409303
:100E10004D01009709F4EBC097FF07C020917D01B9
:100E20002A3630F020E430E005C020E032E002C095
:100E300020E031E03695279597FD019695958795A9
:100E40000097C1F72417350708F0D1C080917C01C5
:100E500090917D01891720F480917D01815007C018
:100E600090917D01981718F480917D018F5F9FEF1D
:100E7000980F292F30E0A9014A5E5E4FFA01649174
:100E800070917D01971758F4E0916C00F0916D001E
:100E9000EF2B29F46F3F19F46FEF70E01CC0E09165
:100EA0006C00F0916D0070E0E617F70738F4609180
:100EB0006C0070916D006F5F7F4F0DC0E0916C0012
:100EC000F0916D006E177F0750F460916C00709187
:100ED0006D006150710970936D0060936C00205833
:100EE0003F4FF9016491E0916A00F0916B0070E06E
:100EF000E617F70738F460916A0070916B006F5F36
:100F00007F4F0DC0E0916A00F0916B006E177F0774
:100F100050F460916A0070916B0061507109709398
:100F20006B0060936A0060916C0070916D00FA0133
:100F3000449150E06417750761F440916A00509144
:100F40006B00F901249130E04217530711F48093AC
:100F50007D0110924E0110924D0149C08530B1F4CF
:100F600080917D01823408F442C080917D0190E03F
:100F7000821B930B8134910534F087399105A8F1D8
:100F800086E990E032C081E490E02FC08630C1F461
:100F900090917D0180916301981748F590917D01B2
:100FA000290F311D90E08217930734F02134310569
:100FB00024F421E430E001C09C0120937C0117C09F
:100FC0008730B9F490917C0180917D01891720F4DC
:100FD00080917D018F5F09C090917C0180917D019E
:100FE000981728F480917D01815080937C0180E0E6
:100FF00001C081E0DF91CF910895883031F41092E3
:10100000450180E00E94FE0124C08130A1F480915E
:101010004501861748F4682F70E06F5F7F4F87E8BF
:1010200099E00E94470415C0FA0109950E94140333
:101030000E941D040EC08A3061F480914501909198
:101040006701E82FF0E0E859FE4F90838F5F8093AF
:10105000450180E00895609165016E5F4EE653E0C2
:101060000C94FD074AE352E062E00C94FD074AE568
:1010700052E061E00C94FD078DE084B91092A2016A
:101080001092A30183B1886483B908950E943C083B
:10109000139A87EE83B908951092A40120B191B1FB
:1010A00030917B012295269526952370892F90E01B
:1010B000880F991F880F991F820F911D830F8093AE
:1010C0007B0180919901882309F40DC11092990147
:1010D0008091A20190917E01992319F01F9810929E
:1010E000A201811143C080911601882349F06091CB
:1010F0009E0170919F0170939B0160939A0104C0BF
:1011000060919A0170919B01605F7F4FE6E0769558
:101110006795EA95E1F780E098E50E947A0F6C5FA9
:101120007F4F76956795609398018091620188233F
:1011300011F081500AC0809198018D3140F460E037
:1011400070E084E00E94FB0085E080936201809162
:101150007E018111BFC08EE884B981E08093A20135
:101160001092A30183B1886483B9B4C0813009F0BF
:10117000B1C080911601811143C080919C01909172
:101180009D01409645E0969587954A95E1F76091D7
:101190009501AC0156954795062E000C770B9B01E7
:1011A0002E503140240F351F309397012093960124
:1011B00020915101E22FF0E0EE0FFF1FEE5AFE4F9B
:1011C00040815181DC01A41BB50BAD01918380836B
:1011D0002F5F2770209351019D01220F331F220F93
:1011E000331F820F931F2091150130E0261B370B10
:1011F000225F3E4F220F331F821B930B23E01CC044
:101200008091A0019091A10190939D0180939C01F8
:10121000409635E0969587953A95E1F7E2E5F1E05D
:1012200081939193B1E0E236FB07D1F7A6CF009707
:1012300009F00196215029F018161906C4F70197F4
:10124000F9CF18161906E4F457FD39C02091500162
:1012500012160CF1880F991FBC016350710977FFBA
:1012600002C06F5F7F4F759567951616170614F0CD
:1012700061E070E088E1861B8093500185E026C024
:101280008C3F2FEF9207DCF457FF19C020915001DB
:1012900027FF05C02450281B2093500119C024EEBD
:1012A000281B20935001209198012F3188F06CEF7A
:1012B0007FEF681B790B7595679586E007C0809175
:1012C00098018E3128F060E070E087E00E94FB001A
:1012D0000E943C0880911601882329F08091160114
:1012E0008150809316010895813C29F460E070E0FC
:1012F00082E595E006C0823C41F460E070E080E762
:1013000094E00E94600480E0089581E00895CF9306
:10131000DF93883059F41092440160934301109296
:10132000420110924101109240018CC0813009F0BD
:101330006CC090914201892F8D7F81F420914001F2
:10134000309141012F31310538F42F5F3F4F3093F9
:1013500041012093400179C09F5F26C0913059F52B
:10136000809143018823F9F0C0914001D09141015F
:101370009E012F7133272A30310511F485E204C014
:101380002431310521F480E00E94FE0106C02F3196
:10139000310519F48150809343012196D093410186
:1013A000C09340014FC092E09093420110924101DE
:1013B000109240014AC09330F9F4C0914001D0919D
:1013C00041012196D0934101C0934001CE01837029
:1013D0009927009711F489E103C0029719F482E17B
:1013E0000E94FE01CB3BD10568F180E00E94FE0126
:1013F00084E08093420126C0943021F5809144011D
:10140000809367010E941D041DC08138E9F4109289
:10141000D70181E080936B0180914201833091F488
:10142000809144018F5F809344011092410110929A
:1014300040018BE40E94FE0184E00E94140180E0E0
:101440000E94FE0180E001C081E0DF91CF9108950C
:101450000F931F93CF93109281018091D5019091AA
:10146000D6019C012F5F3F4F88279078822B932BCA
:101470009093D6018093D501C0917F010E94830192
:10148000C817F9F010927E012091D7011092D60171
:101490001092D501922F882331F090692F702F3050
:1014A00041F09F5F06C09F7E25FD02C0906801C08D
:1014B000906C9093D70180937F0180E090E00E9430
:1014C0007A010091D5011091D60180917E01882387
:1014D00081F0B80183E00E94FB000E942B010F7392
:1014E0001127012B09F046C010924F010E944608B7
:1014F00031C0C091D7018C2F807F803B19F460E010
:1015000070E001C0B80181E00E94FB00C4FF0FC081
:10151000C5FF02C0C80108C008311105D8F0C0627B
:10152000C093D70180E090E00E947A0113C0CC23E1
:1015300089F0C5FD0AC00231110560F0C064C09396
:10154000D70180E090E00E947A011092D70181E0FB
:1015500080936B0180914F01811106C083B1886433
:1015600083B981E08093990180914F018F5F8F71E2
:1015700080934F01CF911F910F9108958091A40105
:1015800081110E944C088091810181110C94280ADC
:101590000895CF92DF92EF92FF920F931F93CF9314
:1015A000DF930091930110919401EC0188E0E82E03
:1015B00087E0F82E92ECC92EDD24D394209719F100
:1015C00080917D01863028F482E00E94F500C601FA
:1015D00004C080E00E94F500C7010197F1F780E0A8
:1015E0000E94F5000E94BE0A80916B0181110DC01E
:1015F000209193013091940121970217130731F440
:101600000E942B01DBCF81E001C080E0DF91CF9110
:101610001F910F91FF90EF90DF90CF900895CF939F
:10162000C82F8823A9F089E10E94FE0186EA90E094
:101630000E94C90A80E00E94FE018AEF90E00E94A9
:10164000C90AC15081F78AE992E0CF910C94C90A86
:1016500089E10E94FE0188E090E00E94C90A80E0D2
:101660000E94FE018AEF90E00E94C90AECCFCF935E
:10167000DF93C82F843638F08CE98C0F843628F03D
:10168000C85C82E004C080E002C0C82F81E0D0E0E6
:10169000CA3018F0DF5FCA50FBCF8823A1F00E9448
:1016A0000F0B882399F08D2F0E940F0B882371F068
:1016B0008C2F0E940F0B882349F088EE93E0DF9176
:1016C000CF910C94C90AD111EECFF2CF80E0DF9117
:1016D000CF910895CF92DF92EF92FF920F931F93D5
:1016E000CF93DF93EB0190910B01923009F0FCC096
:1016F000883031F410924C0181E080930301F6C0F0
:10170000823C19F410924C0100C1813BC1F49091CC
:101710000201CD2B49F49E3610F08FEF03C09230BA
:1017200018F481E08093030180910301890F11F483
:1017300081E032C18F3608F42FC18EE62DC1813E83
:1017400031F480910301819580930301FFC0823BB6
:1017500061F481E08093030180910201823008F4FA
:10176000FDC0815080930201F9C0833C89F48091CF
:101770004C01843E08F014C1855E80934C01809139
:101780007D01805E0E94FE0182E00E94140108C17A
:10179000813009F0F6C06E33710511F480930301B6
:1017A00020914C01FE01FF70213071F48091020103
:1017B00090E04996BF0134E0769567953A95E1F758
:1017C0000E945D0FC92E01C0C12CEF3FFF4069F49C
:1017D000222359F0215020934C01211106C060E0D2
:1017E00070E082E595E00E946004D0904B018D2D61
:1017F000880FD7FC809590E067E070E00E945D0F55
:10180000492FE0904A018E2D880FE7FC80950091CA
:101810000101602F70E090E00E945D0FF09049019F
:101820003F2D330FF7FC309510910001809102019C
:101830008C19840F282F290F612F70E0832F90E0DF
:101840000E945D0F822F890F87FD80E00E94FE01BC
:10185000C0FD06C00E948C018170D80ED0924B0151
:1018600080914801E80EE0924A010E948C0165E2F5
:101870000E946E0FF90EF09249010E948C018F7345
:1018800039F40E948C016DE00E946E0F9093480124
:10189000002339F00E948C018F7319F401500093DA
:1018A00001010E948C01811109C00E948C016BE032
:1018B0000E946E0F9093010110924A01133038F08C
:1018C0000E948C018F7119F41150109300010E9435
:1018D0008C018F7709F066C00E948C0166E00E943F
:1018E0006E0F909300015EC0883021F481E08093F8
:1018F000040154C0813C39F460E070E082E595E079
:101900000E9460044BC0823C51F4892F90E0019604
:1019100063E070E00E948E0F80930B0137C0813B23
:1019200099F491113BC0CF71DD27CD2BB9F5809192
:10193000090190910401891B883020F08F3FF1F458
:101940008EEF1CC088E01AC0813E31F48091040102
:101950008195809304011AC0823BB1F481E08093A9
:10196000040191111BC0CF71DD27CD2BB9F48091FB
:1019700009018F3F99F0809109018F5F80930901E0
:101980000DC0813C09F4B8CF823E19F40E941403C3
:1019900005C0813029F406C08093020180E00EC0AA
:1019A00081E00CC0CE33D10519F481E080930401AD
:1019B00080917B01C80FC0937B01F0CFDF91CF9165
:1019C0001F910F91FF90EF90DF90CF9008951F929D
:1019D0000F920FB60F9211242F933F938F939F93E3
:1019E000AF93BF93EF93FF938091A3018823E9F016
:1019F000E091A20120B131B1F0E0EE0FFF1FDF0155
:101A0000A256BE4F2D933C93E656FE4F80819181A6
:101A10008217930708F401962817390708F40197ED
:101A20009183808381E08093A40181E08093A3016E
:101A3000FF91EF91BF91AF919F918F913F912F9126
:101A40000F900FBE0F901F9018951F920F920FB618
:101A50000F9211248F9381E0809381018F910F90D9
:101A60000FBE0F901F9018951F920F920FB60F92F6
:101A700011248F9381E0809380018F910F900FBE8E
:101A80000F901F901895F89485B7877F85BF88EDD4
:101A900090E00FB6F894A8958FBD90B7977F90BF50
:101AA0000FBE88E08CB98AE780BB81EA8093720020
:101AB00081E08093710084E082BB87BD8CB7886031
:101AC0008CBFA89580E480BF0E944608789481E08E
:101AD0000E94140160E070E08EEA94E00E944704E6
:101AE00082E10E94FE0183E00E94140180E00E94D6
:101AF000FE010E948301811109C0F89480E890E002
:101B00000E94A20F853AC1F1789481C0C0E08C2F69
:101B10000E94FE0183E190E00E94C90A8C2F869505
:101B20000E94FE0183E190E00E94C90A0E948301A5
:101B30008823B9F0CF5FC03451F785E18093680105
:101B4000109269010E943A020E941403C6E98C2F88
:101B50000E94FE0184E090E00E94C90AC150B9F7DA
:101B6000CCCFCC2351F28C2F0E94FE018DE090E06F
:101B70000E94C90AC150F5CF0CE611E0C1E8D0E0DF
:101B8000CE010E94A20FF80181938F012196C039E6
:101B9000D105B1F7789480916C01809365018091B3
:101BA0006D018093100180916E0180930F018091EF
:101BB0006F0180930E018091700180930D018091DF
:101BC000710180930C018091720180936601809174
:101BD000730180930B0180917401809309018091BE
:101BE000750180930A0180917601809308018091AC
:101BF0007701809315018091780180939501809100
:101C000079018093140180917A018093130161E03E
:101C100070E082E595E00E94470443E4242E3324DB
:101C2000339452E0452E60E4C62EDD24D3947CEF3D
:101C3000A72E73E0B72EE7E07E2EF5E06F2EADE025
:101C40005A2E0E942B0180917E01882309F445C001
:101C500080E00E94FE01A89520BE1F980E9483018B
:101C60008111FCCF1092D70130926B018CB7886044
:101C70008CBF1092A401109281011092800180917A
:101C80007E01882309F186B78F79806486BF86B785
:101C9000806186BF889586B78F7E86BF80918001E0
:101CA000811110927E018091A401882331F0D0929D
:101CB0001601D09299010E944C08809181018823DD
:101CC000F1F20E94280ADBCF409216018CB7877F81
:101CD0008CBF0E944608A895C0BE0E94BE0A809193
:101CE000930190919401F2E088339F07B9F4C0E723
:101CF000D0E0FE01849180530E940F0B8CE291E0B2
:101D00000E94C90A2196F0E0C837DF0791F760E02A
:101D100070E082E595E00E946004CCC02BE08A363A
:101D2000920709F08DC080910B01882319F0813052
:101D3000B1F0C0C0C091090186E90E94FE01CA321B
:101D400020F4C5010197F1F704C081E090E00E9402
:101D5000C90A80E00E94FE018C2F90E09EC00E9484
:101D60008C018F73E82EF12C0E948C01672D0E944C
:101D70006E0F01E010E0480102C0880C991C9A9592
:101D8000E2F70E948C01662D0E946E0FE80102C0EE
:101D9000CC0FDD1F9A95E2F78C0E9D1E0E948C01E0
:101DA00090E0B4010E948E0FE401C80FD91FC7391B
:101DB000D10514F0C6E9D0E08C2F0E94FE01C701C6
:101DC0000E94C90A8E0133E0159507953A95E1F70F
:101DD000011101C001E010E0C7010E94C90AC01B47
:101DE000D10BD7FF02C0C0E0D0E08C2F0E94FE01D3
:101DF0000E948C01837041F4C7010E94C90ACE0180
:101E0000959587950E94FE01C230D1052CF70E945E
:101E10008C01652D0E946E0FC1E0D0E002C0CC0F96
:101E2000DD1F9A95E2F70E948C0190E0BE010E94AE
:101E30007A0FC80FD91F80E00E94FE01CE012DC08D
:101E4000E9E084379E0729F4809198010E94370BBE
:101E500031C0F5E086339F07A9F4809111010E94FB
:101E6000FE0184E690E00E94C90A80E00E94FE0123
:101E70008091080190E068EE73E00E945D0F845647
:101E800091090BC08A51954059F480919601909127
:101E900097010E94370B88EE93E00E94C90A0AC09E
:101EA00086B78F7986BF86B7806186BF889586B7EB
:101EB0008F7E86BF10926B01C4CE0024552704C0CC
:101EC000080E591F880F991F009729F0769567957E
:101ED000B8F37105B9F7802D952F0895991B79E016
:101EE00004C0991F961708F0961B881F7A95C9F7AA
:101EF00080950895AA1BBB1B51E107C0AA1FBB1FF9
:101F0000A617B70710F0A61BB70B881F991F5A9585
:101F1000A9F780959095BC01CD01089597FB072EF8
:101F200016F4009407D077FD09D00E947A0F07FCC1
:101F300005D03EF4909581959F4F089570956195D9
:101F40007F4F0895E199FECF1FBA8EBBE09A992783
:101F50008DB30895262FE199FECF1FBA8EBBE09A6C
:101F600081500DB2021639F01CBA2DBB0FB6F89491
:0C1F7000E29AE19A0FBE0895F894FFCFAA
:101F7C00060B1801010100040229430207780A78B4
:101F8C0001412020182D0205040300002101230229
:101F9C002503270429052C06FF060201000000007A
:0E1FAC00000000010000000000000000010025
:00000001FF
